{
  "_format": "hh-sol-artifact-1",
  "contractName": "NFTMarketplace",
  "sourceName": "contracts/NFTMarketplace.sol",
  "abi": [
    {
      "inputs": [],
      "stateMutability": "nonpayable",
      "type": "constructor"
    },
    {
      "anonymous": false,
      "inputs": [
        {
          "indexed": true,
          "internalType": "address",
          "name": "owner",
          "type": "address"
        },
        {
          "indexed": true,
          "internalType": "address",
          "name": "approved",
          "type": "address"
        },
        {
          "indexed": true,
          "internalType": "uint256",
          "name": "tokenId",
          "type": "uint256"
        }
      ],
      "name": "Approval",
      "type": "event"
    },
    {
      "anonymous": false,
      "inputs": [
        {
          "indexed": true,
          "internalType": "address",
          "name": "owner",
          "type": "address"
        },
        {
          "indexed": true,
          "internalType": "address",
          "name": "operator",
          "type": "address"
        },
        {
          "indexed": false,
          "internalType": "bool",
          "name": "approved",
          "type": "bool"
        }
      ],
      "name": "ApprovalForAll",
      "type": "event"
    },
    {
      "anonymous": false,
      "inputs": [
        {
          "indexed": false,
          "internalType": "uint256",
          "name": "_fromTokenId",
          "type": "uint256"
        },
        {
          "indexed": false,
          "internalType": "uint256",
          "name": "_toTokenId",
          "type": "uint256"
        }
      ],
      "name": "BatchMetadataUpdate",
      "type": "event"
    },
    {
      "anonymous": false,
      "inputs": [
        {
          "indexed": false,
          "internalType": "uint256",
          "name": "_tokenId",
          "type": "uint256"
        }
      ],
      "name": "MetadataUpdate",
      "type": "event"
    },
    {
      "anonymous": false,
      "inputs": [
        {
          "indexed": false,
          "internalType": "address",
          "name": "contractAddress",
          "type": "address"
        },
        {
          "indexed": true,
          "internalType": "uint256",
          "name": "tokenId",
          "type": "uint256"
        },
        {
          "indexed": false,
          "internalType": "address",
          "name": "owner",
          "type": "address"
        },
        {
          "indexed": false,
          "internalType": "address",
          "name": "seller",
          "type": "address"
        },
        {
          "indexed": false,
          "internalType": "uint256",
          "name": "price",
          "type": "uint256"
        },
        {
          "indexed": false,
          "internalType": "bool",
          "name": "currentlyListed",
          "type": "bool"
        }
      ],
      "name": "TokenListedSuccess",
      "type": "event"
    },
    {
      "anonymous": false,
      "inputs": [
        {
          "indexed": true,
          "internalType": "address",
          "name": "from",
          "type": "address"
        },
        {
          "indexed": true,
          "internalType": "address",
          "name": "to",
          "type": "address"
        },
        {
          "indexed": true,
          "internalType": "uint256",
          "name": "tokenId",
          "type": "uint256"
        }
      ],
      "name": "Transfer",
      "type": "event"
    },
    {
      "inputs": [
        {
          "internalType": "address",
          "name": "to",
          "type": "address"
        },
        {
          "internalType": "uint256",
          "name": "tokenId",
          "type": "uint256"
        }
      ],
      "name": "approve",
      "outputs": [],
      "stateMutability": "nonpayable",
      "type": "function"
    },
    {
      "inputs": [
        {
          "internalType": "address",
          "name": "owner",
          "type": "address"
        }
      ],
      "name": "balanceOf",
      "outputs": [
        {
          "internalType": "uint256",
          "name": "",
          "type": "uint256"
        }
      ],
      "stateMutability": "view",
      "type": "function"
    },
    {
      "inputs": [
        {
          "internalType": "string",
          "name": "tokenURI",
          "type": "string"
        },
        {
          "internalType": "uint256",
          "name": "donationPercentage",
          "type": "uint256"
        },
        {
          "internalType": "uint256",
          "name": "price",
          "type": "uint256"
        }
      ],
      "name": "createToken",
      "outputs": [
        {
          "internalType": "uint256",
          "name": "",
          "type": "uint256"
        }
      ],
      "stateMutability": "payable",
      "type": "function"
    },
    {
      "inputs": [
        {
          "internalType": "string",
          "name": "tokenURI",
          "type": "string"
        },
        {
          "internalType": "uint256",
          "name": "price",
          "type": "uint256"
        }
      ],
      "name": "createTokenUnlisted",
      "outputs": [
        {
          "internalType": "uint256",
          "name": "",
          "type": "uint256"
        }
      ],
      "stateMutability": "payable",
      "type": "function"
    },
    {
      "inputs": [
        {
          "internalType": "uint256",
          "name": "listingId",
          "type": "uint256"
        }
      ],
      "name": "executeSale",
      "outputs": [],
      "stateMutability": "payable",
      "type": "function"
    },
    {
      "inputs": [],
      "name": "getAllNFTs",
      "outputs": [
        {
          "components": [
            {
              "internalType": "address",
              "name": "contractAddress",
              "type": "address"
            },
            {
              "internalType": "uint256",
              "name": "listingId",
              "type": "uint256"
            },
            {
              "internalType": "uint256",
              "name": "tokenId",
              "type": "uint256"
            },
            {
              "internalType": "address payable",
              "name": "owner",
              "type": "address"
            },
            {
              "internalType": "address payable",
              "name": "seller",
              "type": "address"
            },
            {
              "internalType": "uint256",
              "name": "donationPercentage",
              "type": "uint256"
            },
            {
              "internalType": "uint256",
              "name": "price",
              "type": "uint256"
            },
            {
              "internalType": "bool",
              "name": "currentlyListed",
              "type": "bool"
            }
          ],
          "internalType": "struct NFTMarketplace.ListedToken[]",
          "name": "",
          "type": "tuple[]"
        }
      ],
      "stateMutability": "view",
      "type": "function"
    },
    {
      "inputs": [
        {
          "internalType": "uint256",
          "name": "tokenId",
          "type": "uint256"
        }
      ],
      "name": "getApproved",
      "outputs": [
        {
          "internalType": "address",
          "name": "",
          "type": "address"
        }
      ],
      "stateMutability": "view",
      "type": "function"
    },
    {
      "inputs": [],
      "name": "getCurrentListHeight",
      "outputs": [
        {
          "internalType": "uint256",
          "name": "",
          "type": "uint256"
        }
      ],
      "stateMutability": "view",
      "type": "function"
    },
    {
      "inputs": [],
      "name": "getCurrentToken",
      "outputs": [
        {
          "internalType": "uint256",
          "name": "",
          "type": "uint256"
        }
      ],
      "stateMutability": "view",
      "type": "function"
    },
    {
      "inputs": [],
      "name": "getLatestIdToListedToken",
      "outputs": [
        {
          "components": [
            {
              "internalType": "address",
              "name": "contractAddress",
              "type": "address"
            },
            {
              "internalType": "uint256",
              "name": "listingId",
              "type": "uint256"
            },
            {
              "internalType": "uint256",
              "name": "tokenId",
              "type": "uint256"
            },
            {
              "internalType": "address payable",
              "name": "owner",
              "type": "address"
            },
            {
              "internalType": "address payable",
              "name": "seller",
              "type": "address"
            },
            {
              "internalType": "uint256",
              "name": "donationPercentage",
              "type": "uint256"
            },
            {
              "internalType": "uint256",
              "name": "price",
              "type": "uint256"
            },
            {
              "internalType": "bool",
              "name": "currentlyListed",
              "type": "bool"
            }
          ],
          "internalType": "struct NFTMarketplace.ListedToken",
          "name": "",
          "type": "tuple"
        }
      ],
      "stateMutability": "view",
      "type": "function"
    },
    {
      "inputs": [
        {
          "internalType": "uint256",
          "name": "listingId",
          "type": "uint256"
        }
      ],
      "name": "getListPrice",
      "outputs": [
        {
          "internalType": "uint256",
          "name": "",
          "type": "uint256"
        }
      ],
      "stateMutability": "view",
      "type": "function"
    },
    {
      "inputs": [
        {
          "internalType": "uint256",
          "name": "listingId",
          "type": "uint256"
        }
      ],
      "name": "getListedTokenForId",
      "outputs": [
        {
          "components": [
            {
              "internalType": "address",
              "name": "contractAddress",
              "type": "address"
            },
            {
              "internalType": "uint256",
              "name": "listingId",
              "type": "uint256"
            },
            {
              "internalType": "uint256",
              "name": "tokenId",
              "type": "uint256"
            },
            {
              "internalType": "address payable",
              "name": "owner",
              "type": "address"
            },
            {
              "internalType": "address payable",
              "name": "seller",
              "type": "address"
            },
            {
              "internalType": "uint256",
              "name": "donationPercentage",
              "type": "uint256"
            },
            {
              "internalType": "uint256",
              "name": "price",
              "type": "uint256"
            },
            {
              "internalType": "bool",
              "name": "currentlyListed",
              "type": "bool"
            }
          ],
          "internalType": "struct NFTMarketplace.ListedToken",
          "name": "",
          "type": "tuple"
        }
      ],
      "stateMutability": "view",
      "type": "function"
    },
    {
      "inputs": [
        {
          "internalType": "address",
          "name": "contractAddress",
          "type": "address"
        },
        {
          "internalType": "uint256",
          "name": "tokenId",
          "type": "uint256"
        }
      ],
      "name": "getMostRecentListing",
      "outputs": [
        {
          "components": [
            {
              "internalType": "address",
              "name": "contractAddress",
              "type": "address"
            },
            {
              "internalType": "uint256",
              "name": "listingId",
              "type": "uint256"
            },
            {
              "internalType": "uint256",
              "name": "tokenId",
              "type": "uint256"
            },
            {
              "internalType": "address payable",
              "name": "owner",
              "type": "address"
            },
            {
              "internalType": "address payable",
              "name": "seller",
              "type": "address"
            },
            {
              "internalType": "uint256",
              "name": "donationPercentage",
              "type": "uint256"
            },
            {
              "internalType": "uint256",
              "name": "price",
              "type": "uint256"
            },
            {
              "internalType": "bool",
              "name": "currentlyListed",
              "type": "bool"
            }
          ],
          "internalType": "struct NFTMarketplace.ListedToken",
          "name": "",
          "type": "tuple"
        }
      ],
      "stateMutability": "view",
      "type": "function"
    },
    {
      "inputs": [],
      "name": "getMyNFTs",
      "outputs": [
        {
          "components": [
            {
              "internalType": "address",
              "name": "contractAddress",
              "type": "address"
            },
            {
              "internalType": "uint256",
              "name": "listingId",
              "type": "uint256"
            },
            {
              "internalType": "uint256",
              "name": "tokenId",
              "type": "uint256"
            },
            {
              "internalType": "address payable",
              "name": "owner",
              "type": "address"
            },
            {
              "internalType": "address payable",
              "name": "seller",
              "type": "address"
            },
            {
              "internalType": "uint256",
              "name": "donationPercentage",
              "type": "uint256"
            },
            {
              "internalType": "uint256",
              "name": "price",
              "type": "uint256"
            },
            {
              "internalType": "bool",
              "name": "currentlyListed",
              "type": "bool"
            }
          ],
          "internalType": "struct NFTMarketplace.ListedToken[]",
          "name": "",
          "type": "tuple[]"
        }
      ],
      "stateMutability": "view",
      "type": "function"
    },
    {
      "inputs": [
        {
          "internalType": "uint256",
          "name": "listingId",
          "type": "uint256"
        }
      ],
      "name": "getURIforListing",
      "outputs": [
        {
          "internalType": "string",
          "name": "",
          "type": "string"
        }
      ],
      "stateMutability": "view",
      "type": "function"
    },
    {
      "inputs": [
        {
          "internalType": "address",
          "name": "owner",
          "type": "address"
        },
        {
          "internalType": "address",
          "name": "operator",
          "type": "address"
        }
      ],
      "name": "isApprovedForAll",
      "outputs": [
        {
          "internalType": "bool",
          "name": "",
          "type": "bool"
        }
      ],
      "stateMutability": "view",
      "type": "function"
    },
    {
      "inputs": [
        {
          "internalType": "address",
          "name": "contractAddress",
          "type": "address"
        },
        {
          "internalType": "uint256",
          "name": "tokenId",
          "type": "uint256"
        },
        {
          "internalType": "uint256",
          "name": "price",
          "type": "uint256"
        }
      ],
      "name": "listAnyNFT",
      "outputs": [
        {
          "internalType": "uint256",
          "name": "",
          "type": "uint256"
        }
      ],
      "stateMutability": "payable",
      "type": "function"
    },
    {
      "inputs": [
        {
          "internalType": "address",
          "name": "contractAddress",
          "type": "address"
        },
        {
          "internalType": "uint256",
          "name": "tokenId",
          "type": "uint256"
        },
        {
          "internalType": "uint256",
          "name": "donationPercentage",
          "type": "uint256"
        },
        {
          "internalType": "uint256",
          "name": "price",
          "type": "uint256"
        }
      ],
      "name": "listAnyNFTCustom",
      "outputs": [
        {
          "internalType": "uint256",
          "name": "",
          "type": "uint256"
        }
      ],
      "stateMutability": "payable",
      "type": "function"
    },
    {
      "inputs": [],
      "name": "name",
      "outputs": [
        {
          "internalType": "string",
          "name": "",
          "type": "string"
        }
      ],
      "stateMutability": "view",
      "type": "function"
    },
    {
      "inputs": [
        {
          "internalType": "uint256",
          "name": "tokenId",
          "type": "uint256"
        }
      ],
      "name": "ownerOf",
      "outputs": [
        {
          "internalType": "address",
          "name": "",
          "type": "address"
        }
      ],
      "stateMutability": "view",
      "type": "function"
    },
    {
      "inputs": [],
      "name": "retrieveTokenListings",
      "outputs": [
        {
          "components": [
            {
              "internalType": "address",
              "name": "contractAddress",
              "type": "address"
            },
            {
              "internalType": "uint256",
              "name": "listingId",
              "type": "uint256"
            },
            {
              "internalType": "uint256",
              "name": "tokenId",
              "type": "uint256"
            },
            {
              "internalType": "address payable",
              "name": "owner",
              "type": "address"
            },
            {
              "internalType": "address payable",
              "name": "seller",
              "type": "address"
            },
            {
              "internalType": "uint256",
              "name": "donationPercentage",
              "type": "uint256"
            },
            {
              "internalType": "uint256",
              "name": "price",
              "type": "uint256"
            },
            {
              "internalType": "bool",
              "name": "currentlyListed",
              "type": "bool"
            }
          ],
          "internalType": "struct NFTMarketplace.ListedToken[]",
          "name": "",
          "type": "tuple[]"
        }
      ],
      "stateMutability": "view",
      "type": "function"
    },
    {
      "inputs": [
        {
          "internalType": "address",
          "name": "from",
          "type": "address"
        },
        {
          "internalType": "address",
          "name": "to",
          "type": "address"
        },
        {
          "internalType": "uint256",
          "name": "tokenId",
          "type": "uint256"
        }
      ],
      "name": "safeTransferFrom",
      "outputs": [],
      "stateMutability": "nonpayable",
      "type": "function"
    },
    {
      "inputs": [
        {
          "internalType": "address",
          "name": "from",
          "type": "address"
        },
        {
          "internalType": "address",
          "name": "to",
          "type": "address"
        },
        {
          "internalType": "uint256",
          "name": "tokenId",
          "type": "uint256"
        },
        {
          "internalType": "bytes",
          "name": "data",
          "type": "bytes"
        }
      ],
      "name": "safeTransferFrom",
      "outputs": [],
      "stateMutability": "nonpayable",
      "type": "function"
    },
    {
      "inputs": [
        {
          "internalType": "address",
          "name": "operator",
          "type": "address"
        },
        {
          "internalType": "bool",
          "name": "approved",
          "type": "bool"
        }
      ],
      "name": "setApprovalForAll",
      "outputs": [],
      "stateMutability": "nonpayable",
      "type": "function"
    },
    {
      "inputs": [
        {
          "internalType": "bytes4",
          "name": "interfaceId",
          "type": "bytes4"
        }
      ],
      "name": "supportsInterface",
      "outputs": [
        {
          "internalType": "bool",
          "name": "",
          "type": "bool"
        }
      ],
      "stateMutability": "view",
      "type": "function"
    },
    {
      "inputs": [],
      "name": "symbol",
      "outputs": [
        {
          "internalType": "string",
          "name": "",
          "type": "string"
        }
      ],
      "stateMutability": "view",
      "type": "function"
    },
    {
      "inputs": [
        {
          "internalType": "uint256",
          "name": "tokenId",
          "type": "uint256"
        }
      ],
      "name": "tokenURI",
      "outputs": [
        {
          "internalType": "string",
          "name": "",
          "type": "string"
        }
      ],
      "stateMutability": "view",
      "type": "function"
    },
    {
      "inputs": [
        {
          "internalType": "address",
          "name": "from",
          "type": "address"
        },
        {
          "internalType": "address",
          "name": "to",
          "type": "address"
        },
        {
          "internalType": "uint256",
          "name": "tokenId",
          "type": "uint256"
        }
      ],
      "name": "transferFrom",
      "outputs": [],
      "stateMutability": "nonpayable",
      "type": "function"
    },
    {
      "inputs": [
        {
          "internalType": "uint256",
          "name": "_listPrice",
          "type": "uint256"
        }
      ],
      "name": "updateListPrice",
      "outputs": [],
      "stateMutability": "payable",
      "type": "function"
    }
  ],
  "bytecode": "0x608060405266038d7ea4c68000600b556019600c553480156200002157600080fd5b50604080518082018252601081526f43686f73656e2053616e63747561727960801b602080830191825283518085019094526002845261435360f01b9084015281519192916200007491600091620000a5565b5080516200008a906001906020840190620000a5565b5050600a80546001600160a01b031916331790555062000188565b828054620000b3906200014b565b90600052602060002090601f016020900481019282620000d7576000855562000122565b82601f10620000f257805160ff191683800117855562000122565b8280016001018555821562000122579182015b828111156200012257825182559160200191906001019062000105565b506200013092915062000134565b5090565b5b8082111562000130576000815560010162000135565b600181811c908216806200016057607f821691505b602082108114156200018257634e487b7160e01b600052602260045260246000fd5b50919050565b612c5780620001986000396000f3fe6080604052600436106101c25760003560e01c80639b1225c4116100f7578063c444f1c311610095578063e0391b0911610064578063e0391b09146104d8578063e5f264e8146104ed578063e985e9c514610500578063ef2d17461461054957600080fd5b8063c444f1c314610470578063c87b56dd14610483578063ce9bbe85146104a3578063d1a88ae5146104c357600080fd5b8063a6ff0c5c116100d1578063a6ff0c5c14610415578063b88d4fde1461042a578063bec2a7c51461044a578063c322579c1461045d57600080fd5b80639b1225c4146103cd5780639e2be44e146103e0578063a22cb465146103f557600080fd5b806353acc27f1161016457806370a082311161013e57806370a082311461035857806375f212fd146103785780638e2645901461038b57806395d89b41146103b857600080fd5b806353acc27f146102f6578063629cb2e4146103165780636352211e1461033857600080fd5b8063095ea7b3116101a0578063095ea7b31461025657806323b872dd146102785780632d68a76c1461029857806342842e0e146102d657600080fd5b806301ffc9a7146101c757806306fdde03146101fc578063081812fc1461021e575b600080fd5b3480156101d357600080fd5b506101e76101e23660046126bd565b61055e565b60405190151581526020015b60405180910390f35b34801561020857600080fd5b50610211610589565b6040516101f3919061294b565b34801561022a57600080fd5b5061023e6102393660046127ee565b61061b565b6040516001600160a01b0390911681526020016101f3565b34801561026257600080fd5b5061027661027136600461262a565b610642565b005b34801561028457600080fd5b5061027661029336600461253c565b61075d565b3480156102a457600080fd5b506102c86102b33660046127ee565b6000908152600d602052604090206006015490565b6040519081526020016101f3565b3480156102e257600080fd5b506102766102f136600461253c565b61078e565b34801561030257600080fd5b506102116103113660046127ee565b6107a9565b34801561032257600080fd5b5061032b61084b565b6040516101f391906128fc565b34801561034457600080fd5b5061023e6103533660046127ee565b610a62565b34801561036457600080fd5b506102c86103733660046124f0565b610ac2565b6102c8610386366004612653565b610b48565b34801561039757600080fd5b506103ab6103a63660046127ee565b610b89565b6040516101f39190612a87565b3480156103c457600080fd5b50610211610c12565b6102766103db3660046127ee565b610c21565b3480156103ec57600080fd5b506102c8610e49565b34801561040157600080fd5b506102766104103660046125f0565b610e59565b34801561042157600080fd5b5061032b610e68565b34801561043657600080fd5b50610276610445366004612577565b610fce565b6102c86104583660046127a2565b611006565b61027661046b3660046127ee565b61106e565b6102c861047e36600461275f565b6110de565b34801561048f57600080fd5b5061021161049e3660046127ee565b611162565b3480156104af57600080fd5b506103ab6104be36600461262a565b61126b565b3480156104cf57600080fd5b506103ab611362565b3480156104e457600080fd5b5061032b6113f8565b6102c86104fb366004612685565b611554565b34801561050c57600080fd5b506101e761051b36600461250a565b6001600160a01b03918216600090815260056020908152604080832093909416825291909152205460ff1690565b34801561055557600080fd5b506102c8611587565b60006001600160e01b03198216632483248360e11b1480610583575061058382611592565b92915050565b60606000805461059890612b89565b80601f01602080910402602001604051908101604052809291908181526020018280546105c490612b89565b80156106115780601f106105e657610100808354040283529160200191610611565b820191906000526020600020905b8154815290600101906020018083116105f457829003601f168201915b5050505050905090565b6000610626826115e2565b506000908152600460205260409020546001600160a01b031690565b600061064d82610a62565b9050806001600160a01b0316836001600160a01b031614156106c05760405162461bcd60e51b815260206004820152602160248201527f4552433732313a20617070726f76616c20746f2063757272656e74206f776e656044820152603960f91b60648201526084015b60405180910390fd5b336001600160a01b03821614806106dc57506106dc813361051b565b61074e5760405162461bcd60e51b815260206004820152603d60248201527f4552433732313a20617070726f76652063616c6c6572206973206e6f7420746f60448201527f6b656e206f776e6572206f7220617070726f76656420666f7220616c6c00000060648201526084016106b7565b6107588383611644565b505050565b61076733826116b2565b6107835760405162461bcd60e51b81526004016106b79061295e565b610758838383611730565b61075883838360405180602001604052806000815250610fce565b6000818152600d6020526040908190208054600290910154915163c87b56dd60e01b8152600481018390526060926001600160a01b039092169190829063c87b56dd9060240160006040518083038186803b15801561080757600080fd5b505afa15801561081b573d6000803e3d6000fd5b505050506040513d6000823e601f3d908101601f1916820160405261084391908101906126f5565b949350505050565b6060600061085860085490565b905060008060005b838110156108f05733600d6000610878846001612aef565b81526020810191909152604001600020600301546001600160a01b031614806108cb575033600d60006108ac846001612aef565b81526020810191909152604001600020600401546001600160a01b0316145b156108de576108db600184612aef565b92505b806108e881612bc4565b915050610860565b5060008267ffffffffffffffff81111561091a57634e487b7160e01b600052604160045260246000fd5b60405190808252806020026020018201604052801561095357816020015b61094061237c565b8152602001906001900390816109385790505b50905060005b84811015610a595733600d6000610971846001612aef565b81526020810191909152604001600020600301546001600160a01b031614806109c4575033600d60006109a5846001612aef565b81526020810191909152604001600020600401546001600160a01b0316145b15610a475760006109d6826001612aef565b6000818152600d60205260409020909150836109f3866001612aef565b81518110610a1157634e487b7160e01b600052603260045260246000fd5b6020026020010151848681518110610a3957634e487b7160e01b600052603260045260246000fd5b602002602001018190525050505b80610a5181612bc4565b915050610959565b50949350505050565b6000818152600260205260408120546001600160a01b0316806105835760405162461bcd60e51b8152602060048201526018602482015277115490cdcc8c4e881a5b9d985b1a59081d1bdad95b88125160421b60448201526064016106b7565b60006001600160a01b038216610b2c5760405162461bcd60e51b815260206004820152602960248201527f4552433732313a2061646472657373207a65726f206973206e6f7420612076616044820152683634b21037bbb732b960b91b60648201526084016106b7565b506001600160a01b031660009081526003602052604090205490565b6000610b58600780546001019055565b6000610b6360075490565b6000818152600d60205260409020600701805460ff191660011790559150509392505050565b610b9161237c565b506000908152600d602090815260409182902082516101008101845281546001600160a01b03908116825260018301549382019390935260028201549381019390935260038101548216606084015260048101549091166080830152600581015460a0830152600681015460c08301526007015460ff16151560e082015290565b60606001805461059890612b89565b6000818152600d602052604081208054600282015460068301546005909301546001600160a01b0390921693909290916019811415610c6c57610c65600483612b07565b9250610cac565b8060321415610c8057610c65600283612b07565b80604b1415610c9f57610c94600483612b07565b610c65906003612b27565b8060641415610cac578192505b6000610cb88484612b46565b6000888152600d60205260409020600401549091506001600160a01b0316348414610d255760405162461bcd60e51b815260206004820152601e60248201527f706c65617365207375626d6974207468652061736b696e67207072696365000060448201526064016106b7565b6000888152600d6020526040902060078101805460ff1916905560040180546001600160a01b03191633179055610d60600980546001019055565b604051632142170760e11b8152306004820152336024820152604481018790526001600160a01b038816906342842e0e90606401600060405180830381600087803b158015610dae57600080fd5b505af1158015610dc2573d6000803e3d6000fd5b505060405173f587bc0397ddce74687789857d0af56523f993f3925087156108fc02915087906000818181858888f19350505050158015610e07573d6000803e3d6000fd5b506040516001600160a01b0382169083156108fc029084906000818181858888f19350505050158015610e3e573d6000803e3d6000fd5b505050505050505050565b6000610e5460075490565b905090565b610e64338383611894565b5050565b60606000610e7560075490565b905060008167ffffffffffffffff811115610ea057634e487b7160e01b600052604160045260246000fd5b604051908082528060200260200182016040528015610ed957816020015b610ec661237c565b815260200190600190039081610ebe5790505b509050600080805b84811015610fc457610ef4816001612aef565b6000818152600d602090815260409182902082516101008101845281546001600160a01b03908116825260018301549382019390935260028201549381019390935260038101548216606084015260048101549091166080830152600581015460a0830152600681015460c0830152600781015460ff16151560e0830152865192945091869086908110610f9857634e487b7160e01b600052603260045260246000fd5b6020908102919091010152610fae600185612aef565b9350508080610fbc90612bc4565b915050610ee1565b5091949350505050565b610fd833836116b2565b610ff45760405162461bcd60e51b81526004016106b79061295e565b61100084848484611963565b50505050565b6000611016600880546001019055565b611024600780546001019055565b600061102f60085490565b9050600061103c60075490565b9050601985101561104d57600c5494505b6110573383611996565b61106182876119b0565b610a593083838888611a82565b600a546001600160a01b031633146110d95760405162461bcd60e51b815260206004820152602860248201527f4f6e6c7920746865206f776e65722063616e2075706461746520746865206c69604482015267737420707269636560c01b60648201526084016106b7565b600b55565b60006110ee600880546001019055565b60006110f960085490565b90506111053382611996565b61110f81856119b0565b6111198184611d17565b60405173f587bc0397ddce74687789857d0af56523f993f39084156108fc029085906000818181858888f1935050505015801561115a573d6000803e3d6000fd5b509392505050565b606061116d826115e2565b6000828152600660205260408120805461118690612b89565b80601f01602080910402602001604051908101604052809291908181526020018280546111b290612b89565b80156111ff5780601f106111d4576101008083540402835291602001916111ff565b820191906000526020600020905b8154815290600101906020018083116111e257829003601f168201915b50505050509050600061121d60408051602081019091526000815290565b9050805160001415611230575092915050565b81511561126257808260405160200161124a929190612890565b60405160208183030381529060405292505050919050565b61084384611ec5565b61127361237c565b600061127e60075490565b905061128861237c565b60005b828111610a59576000818152600d60205260409020546001600160a01b0387811691161480156112cb57506000818152600d602052604090206002015485145b15611350576000818152600d602090815260409182902082516101008101845281546001600160a01b03908116825260018301549382019390935260028201549381019390935260038101548216606084015260048101549091166080830152600581015460a0830152600681015460c08301526007015460ff16151560e082015291505b8061135a81612bc4565b91505061128b565b61136a61237c565b600061137560085490565b6000908152600d602090815260409182902082516101008101845281546001600160a01b03908116825260018301549382019390935260028201549381019390935260038101548216606084015260048101549091166080830152600581015460a0830152600681015460c08301526007015460ff16151560e082015292915050565b6060600061140560085490565b905060008167ffffffffffffffff81111561143057634e487b7160e01b600052604160045260246000fd5b60405190808252806020026020018201604052801561146957816020015b61145661237c565b81526020019060019003908161144e5790505b509050600080805b84811015610fc457611484816001612aef565b6000818152600d602090815260409182902082516101008101845281546001600160a01b03908116825260018301549382019390935260028201549381019390935260038101548216606084015260048101549091166080830152600581015460a0830152600681015460c0830152600781015460ff16151560e083015286519294509186908690811061152857634e487b7160e01b600052603260045260246000fd5b602090810291909101015261153e600185612aef565b935050808061154c90612bc4565b915050611471565b6000611564600780546001019055565b600061156f60075490565b905061157e8686838787611a82565b95945050505050565b6000610e5460085490565b60006001600160e01b031982166380ac58cd60e01b14806115c357506001600160e01b03198216635b5e139f60e01b145b8061058357506301ffc9a760e01b6001600160e01b0319831614610583565b6000818152600260205260409020546001600160a01b03166116415760405162461bcd60e51b8152602060048201526018602482015277115490cdcc8c4e881a5b9d985b1a59081d1bdad95b88125160421b60448201526064016106b7565b50565b600081815260046020526040902080546001600160a01b0319166001600160a01b038416908117909155819061167982610a62565b6001600160a01b03167f8c5be1e5ebec7d5bd14f71427d1e84f3dd0314c0f7b2291e5b200ac8c7c3b92560405160405180910390a45050565b6000806116be83610a62565b9050806001600160a01b0316846001600160a01b0316148061170557506001600160a01b0380821660009081526005602090815260408083209388168352929052205460ff165b806108435750836001600160a01b031661171e8461061b565b6001600160a01b031614949350505050565b826001600160a01b031661174382610a62565b6001600160a01b0316146117695760405162461bcd60e51b81526004016106b7906129fd565b6001600160a01b0382166117cb5760405162461bcd60e51b8152602060048201526024808201527f4552433732313a207472616e7366657220746f20746865207a65726f206164646044820152637265737360e01b60648201526084016106b7565b826001600160a01b03166117de82610a62565b6001600160a01b0316146118045760405162461bcd60e51b81526004016106b7906129fd565b600081815260046020908152604080832080546001600160a01b03199081169091556001600160a01b0387811680865260038552838620805460001901905590871680865283862080546001019055868652600290945282852080549092168417909155905184937fddf252ad1be2c89b69c2b068fc378daa952ba7f163c4a11628f55a4df523b3ef91a4505050565b816001600160a01b0316836001600160a01b031614156118f65760405162461bcd60e51b815260206004820152601960248201527f4552433732313a20617070726f766520746f2063616c6c65720000000000000060448201526064016106b7565b6001600160a01b03838116600081815260056020908152604080832094871680845294825291829020805460ff191686151590811790915591519182527f17307eab39ab6107e8899845ad3d59bd9653f200f220920489ca2b5937696c31910160405180910390a3505050565b61196e848484611730565b61197a84848484611f39565b6110005760405162461bcd60e51b81526004016106b7906129ab565b610e64828260405180602001604052806000815250612043565b6000828152600260205260409020546001600160a01b0316611a2b5760405162461bcd60e51b815260206004820152602e60248201527f45524337323155524953746f726167653a2055524920736574206f66206e6f6e60448201526d32bc34b9ba32b73a103a37b5b2b760911b60648201526084016106b7565b60008281526006602090815260409091208251611a4a928401906123de565b506040518281527ff8e1a15aba9398e019f0b49df1a4fde98ee17ae345cb5f6b5e2c27f5033e8ce79060200160405180910390a15050565b600b54341015611ad45760405162461bcd60e51b815260206004820152601f60248201527f486f706566756c6c792073656e64696e6720636f72726563742070726963650060448201526064016106b7565b60008111611af45760405162461bcd60e51b81526004016106b790612a42565b6000859050604051806101000160405280876001600160a01b03168152602001858152602001868152602001306001600160a01b03168152602001336001600160a01b0316815260200184815260200183815260200160011515815250600d600086815260200190815260200160002060008201518160000160006101000a8154816001600160a01b0302191690836001600160a01b03160217905550602082015181600101556040820151816002015560608201518160030160006101000a8154816001600160a01b0302191690836001600160a01b0316021790555060808201518160040160006101000a8154816001600160a01b0302191690836001600160a01b0316021790555060a0820151816005015560c0820151816006015560e08201518160070160006101000a81548160ff021916908315150217905550905050806001600160a01b03166323b872dd3330886040518463ffffffff1660e01b8152600401611c85939291906001600160a01b039384168152919092166020820152604081019190915260600190565b600060405180830381600087803b158015611c9f57600080fd5b505af1158015611cb3573d6000803e3d6000fd5b5050604080516001600160a01b038a1681523060208201523381830152606081018690526001608082015290518893507ffd47e7dc068a146474ddadb742f7c7cf5438feff9ccbe99f724dbd6d6dfb425792509081900360a00190a2505050505050565b600b54341015611d695760405162461bcd60e51b815260206004820152601f60248201527f486f706566756c6c792073656e64696e6720636f72726563742070726963650060448201526064016106b7565b60008111611d895760405162461bcd60e51b81526004016106b790612a42565b60408051610100810182523080825260006020808401828152848601888152606086018581523360808801818152600c5460a08a0190815260c08a018c815260e08b018981528e8a52600d9098528b89209a518b546001600160a01b039182166001600160a01b0319918216178d55975160018d0155955160028c0155935160038b018054918716918816919091179055905160048a01805491909516951694909417909255915160058701559051600686015590516007909401805494151560ff1990951694909417909355925185937ffd47e7dc068a146474ddadb742f7c7cf5438feff9ccbe99f724dbd6d6dfb425793611eb99392839288916001600160a01b03958616815293851660208501529190931660408301526060820192909252901515608082015260a00190565b60405180910390a25050565b6060611ed0826115e2565b6000611ee760408051602081019091526000815290565b90506000815111611f075760405180602001604052806000815250611f32565b80611f1184612076565b604051602001611f22929190612890565b6040516020818303038152906040525b9392505050565b60006001600160a01b0384163b1561203b57604051630a85bd0160e11b81526001600160a01b0385169063150b7a0290611f7d9033908990889088906004016128bf565b602060405180830381600087803b158015611f9757600080fd5b505af1925050508015611fc7575060408051601f3d908101601f19168201909252611fc4918101906126d9565b60015b612021573d808015611ff5576040519150601f19603f3d011682016040523d82523d6000602084013e611ffa565b606091505b5080516120195760405162461bcd60e51b81526004016106b7906129ab565b805181602001fd5b6001600160e01b031916630a85bd0160e11b149050610843565b506001610843565b61204d8383612119565b61205a6000848484611f39565b6107585760405162461bcd60e51b81526004016106b7906129ab565b60606000612083836122a4565b600101905060008167ffffffffffffffff8111156120b157634e487b7160e01b600052604160045260246000fd5b6040519080825280601f01601f1916602001820160405280156120db576020820181803683370190505b5090508181016020015b600019016f181899199a1a9b1b9c1cb0b131b232b360811b600a86061a8153600a85049450846121145761115a565b6120e5565b6001600160a01b03821661216f5760405162461bcd60e51b815260206004820181905260248201527f4552433732313a206d696e7420746f20746865207a65726f206164647265737360448201526064016106b7565b6000818152600260205260409020546001600160a01b0316156121d45760405162461bcd60e51b815260206004820152601c60248201527f4552433732313a20746f6b656e20616c7265616479206d696e7465640000000060448201526064016106b7565b6000818152600260205260409020546001600160a01b0316156122395760405162461bcd60e51b815260206004820152601c60248201527f4552433732313a20746f6b656e20616c7265616479206d696e7465640000000060448201526064016106b7565b6001600160a01b038216600081815260036020908152604080832080546001019055848352600290915280822080546001600160a01b0319168417905551839291907fddf252ad1be2c89b69c2b068fc378daa952ba7f163c4a11628f55a4df523b3ef908290a45050565b60008072184f03e93ff9f4daa797ed6e38ed64bf6a1f0160401b83106122e35772184f03e93ff9f4daa797ed6e38ed64bf6a1f0160401b830492506040015b6d04ee2d6d415b85acef8100000000831061230f576d04ee2d6d415b85acef8100000000830492506020015b662386f26fc10000831061232d57662386f26fc10000830492506010015b6305f5e1008310612345576305f5e100830492506008015b612710831061235957612710830492506004015b6064831061236b576064830492506002015b600a83106105835760010192915050565b60405180610100016040528060006001600160a01b03168152602001600081526020016000815260200160006001600160a01b0316815260200160006001600160a01b0316815260200160008152602001600081526020016000151581525090565b8280546123ea90612b89565b90600052602060002090601f01602090048101928261240c5760008555612452565b82601f1061242557805160ff1916838001178555612452565b82800160010185558215612452579182015b82811115612452578251825591602001919060010190612437565b5061245e929150612462565b5090565b5b8082111561245e5760008155600101612463565b600061248a61248584612ac7565b612a96565b905082815283838301111561249e57600080fd5b828260208301376000602084830101529392505050565b80356001600160a01b03811681146124cc57600080fd5b919050565b600082601f8301126124e1578081fd5b611f3283833560208501612477565b600060208284031215612501578081fd5b611f32826124b5565b6000806040838503121561251c578081fd5b612525836124b5565b9150612533602084016124b5565b90509250929050565b600080600060608486031215612550578081fd5b612559846124b5565b9250612567602085016124b5565b9150604084013590509250925092565b6000806000806080858703121561258c578081fd5b612595856124b5565b93506125a3602086016124b5565b925060408501359150606085013567ffffffffffffffff8111156125c5578182fd5b8501601f810187136125d5578182fd5b6125e487823560208401612477565b91505092959194509250565b60008060408385031215612602578182fd5b61260b836124b5565b91506020830135801515811461261f578182fd5b809150509250929050565b6000806040838503121561263c578182fd5b612645836124b5565b946020939093013593505050565b600080600060608486031215612667578283fd5b612670846124b5565b95602085013595506040909401359392505050565b6000806000806080858703121561269a578384fd5b6126a3856124b5565b966020860135965060408601359560600135945092505050565b6000602082840312156126ce578081fd5b8135611f3281612c0b565b6000602082840312156126ea578081fd5b8151611f3281612c0b565b600060208284031215612706578081fd5b815167ffffffffffffffff81111561271c578182fd5b8201601f8101841361272c578182fd5b805161273a61248582612ac7565b81815285602083850101111561274e578384fd5b61157e826020830160208601612b5d565b60008060408385031215612771578182fd5b823567ffffffffffffffff811115612787578283fd5b612793858286016124d1565b95602094909401359450505050565b6000806000606084860312156127b6578081fd5b833567ffffffffffffffff8111156127cc578182fd5b6127d8868287016124d1565b9660208601359650604090950135949350505050565b6000602082840312156127ff578081fd5b5035919050565b6000815180845261281e816020860160208601612b5d565b601f01601f19169290920160200192915050565b60018060a01b0380825116835260208201516020840152604082015160408401528060608301511660608401528060808301511660808401525060a081015160a083015260c081015160c083015260e0810151151560e08301525050565b600083516128a2818460208801612b5d565b8351908301906128b6818360208801612b5d565b01949350505050565b6001600160a01b03858116825284166020820152604081018390526080606082018190526000906128f290830184612806565b9695505050505050565b6020808252825182820181905260009190848201906040850190845b8181101561293f5761292b838551612832565b928401926101009290920191600101612918565b50909695505050505050565b602081526000611f326020830184612806565b6020808252602d908201527f4552433732313a2063616c6c6572206973206e6f7420746f6b656e206f776e6560408201526c1c881bdc88185c1c1c9bdd9959609a1b606082015260800190565b60208082526032908201527f4552433732313a207472616e7366657220746f206e6f6e20455243373231526560408201527131b2b4bb32b91034b6b83632b6b2b73a32b960711b606082015260800190565b60208082526025908201527f4552433732313a207472616e736665722066726f6d20696e636f72726563742060408201526437bbb732b960d91b606082015260800190565b60208082526025908201527f546f6b656e207072696365206d757374206265206120706f736974697665206e6040820152643ab6b132b960d91b606082015260800190565b61010081016105838284612832565b604051601f8201601f1916810167ffffffffffffffff81118282101715612abf57612abf612bf5565b604052919050565b600067ffffffffffffffff821115612ae157612ae1612bf5565b50601f01601f191660200190565b60008219821115612b0257612b02612bdf565b500190565b600082612b2257634e487b7160e01b81526012600452602481fd5b500490565b6000816000190483118215151615612b4157612b41612bdf565b500290565b600082821015612b5857612b58612bdf565b500390565b60005b83811015612b78578181015183820152602001612b60565b838111156110005750506000910152565b600181811c90821680612b9d57607f821691505b60208210811415612bbe57634e487b7160e01b600052602260045260246000fd5b50919050565b6000600019821415612bd857612bd8612bdf565b5060010190565b634e487b7160e01b600052601160045260246000fd5b634e487b7160e01b600052604160045260246000fd5b6001600160e01b03198116811461164157600080fdfea26469706673582212207b4ccd95870e39f818c10004fc8944db259ff01fddb9b539337ece70c361962564736f6c63430008040033",
  "linkReferences": {},
  "deployedLinkReferences": {}
}